:10000000A0240020190100001501000015010000C6
:1000100000000000000000000000000000000000E0
:1000200000000000000000000000000015010000BA
:100030000000000000000000150100001501000094
:100040001501000015010000150100001501000058
:100050001501000015010000150100001501000048
:100060001501000015010000150100001501000038
:100070001501000015010000150100001501000028
:100080001501000015010000150100001501000018
:100090001501000000000000000000001501000034
:1000A00015010000150100001501000015010000F8
:1000B0000000000010B5064C2378002B07D1054B3B
:1000C000002B02D0044800E000BF0123237010BDC4
:1000D0003404002000000000600A0000084B10B546
:1000E000002B03D00749084800E000BF0748036819
:1000F000002B00D110BD064B002BFBD09847F9E731
:100100000000000038040020600A0000600A0000BF
:1001100000000000FEE70000F8B52A4A2A4B9A4288
:1001200011D01A00294B9A420DD2294A03339B1A47
:100130009B0801339B000022234822498C5884509D
:1001400004329A42FAD1234A234B9A420AD2D34329
:1001500021495B1803218B4304339B18002102C201
:100160009342FCD11D4AFF211D4B8B439360FD3907
:1001700090235B001B4AD1501B4AD3780325AB4325
:1001800002242343D370D3780C27BB430826334380
:10019000D370164B987B30229043202210439873E3
:1001A000997BB943314399739A7BAA4322439A734B
:1001B0000F4A536880210B4353600E4B98470E4BF8
:1001C0009847FEE7600A0000000000203404002089
:1001D0000400002034040020A004002000ED00E012
:1001E0000000000000700041005000410048004144
:1001F0000040004175080000C9020000014A024B9E
:100200001A60704740420F000000002010B51A4BE2
:1002100098471A4A136A1A490B401362194B196816
:100220008022D2000A431A604B22995C01200143CC
:1002300099544A215A5C02435A543522995C02204F
:1002400001439954995C1E30014399540E4A136A34
:1002500004210B4313620D4A0D4B5A800D4B0E4A7D
:100260001A60C02292025A600C4A9A811A680239B6
:100270000A431A6010BDC046FD010000000800409E
:10028000FFFCFFFF00440041000400401440000058
:10029000000C0040000800420400314015FBFFFF45
:1002A000084A13682121D9711D3999710F3159718B
:1002B0000C39197110209870136859701368002256
:1002C0001A70704704000020F0B5C64600B584B02F
:1002D000314B9847314B9847314B9847314C216807
:1002E0006820314B984721686820304B9847236835
:1002F0001A785106490F8B005B185B001207120F2A
:100300009B182B4A1360274D284E1400296868203B
:10031000B047286802785106490F8B005B185B00D4
:100320001207120F9B18636022689342EED0837904
:10033000DB06DB0F41790A07120F8906890FC7799F
:100340003F073F0F0297C7793F0901978079000760
:10035000000F00901748184FB847124B18684378A1
:100360005B065B0F984681780A07120FC906C90F12
:1003700003781B071B0F029303785B065B0F019347
:1003800040780007000F009043460C48B847084BE0
:100390005A681A60BAE7C0460D02000069060000FC
:1003A000A10200000400002001070000A9070000CE
:1003B00050040020140A00006D040000280A000008
:1003C000024A1368591C11601870704758040020C5
:1003D00010B53023092805D9064B1A793723002A8E
:1003E00000D120331818C0B2034B98470122014BAB
:1003F0005A7110BD58040020C103000010B50E4B07
:100400001A899A60824210D30023121A0133DBB298
:100410009042FAD908498A604A79002A01D1002B12
:1004200002D01800054B984710BD034B5B79002B99
:10043000FAD00023F5E7C04658040020D10300009D
:100440000A2808D0084901220B7E1342FCD080B252
:10045000054B18857047044901220B7E1342FCD0DE
:100460000D22014B1A85EDE7000800420FB4F0B5EC
:10047000DE4657464E464546E0B587B010AB80CBCA
:100480000593734B0C330293714B9A46714B98460C
:1004900053460C3303938CE07B78302B29D0023702
:1004A0000022934600241A00303A092A0CD8A200F0
:1004B000A4186400303CE418E4B27A1C3B781700BE
:1004C000190030390929F2D9614A029911600022D4
:1004D0005F494A71632B00D17DE00FD8252B00D1F5
:1004E00086E0582B11D0002B00D1A6E0584D0C35DA
:1004F0003CE0BB78033701229346D3E7732B72D0DD
:100500001BD9752B1BD0782BF0D1514D583B59423C
:1005100059412971059B1A1D05921B68AB6080200B
:1005200040014D4EB04780204000B0471020B047FA
:10053000287A4A4B98470C3518E0642BD6D1059A97
:10054000111D0591126842498A60642B3BD04448D2
:10055000414DA847FA208000A8476420A8470A20F8
:10056000A8473B4D287A3D4B98470C35002352460F
:10057000126813706B1C994653464A461A602878D5
:10058000002855D0002C0CD0AA1C631EDBB2110031
:10059000561E3678002E3CD001321C1EF5D12C4B55
:1005A000196028784D46C04701356B1E1878002821
:1005B000F9D13878002840D0252800D16CE70137E0
:1005C000244B9847F5E7002AC1DA52428A602D2071
:1005D000244B9847BBE7059B1A1D05921878214BC1
:1005E0009847039DC2E7059B1A1D05921D68BDE74C
:1005F00025201C4B9847164D0C35B7E71E00019877
:10060000A047731EDBB2002EF8D128780028C9D18C
:10061000CFE70F4A1160023CE6B2002BC2D0202483
:100620005B46002B00D03024E3B20193094CE6E78F
:10063000661EF6B2002CF2D1BBE707B03CBC904678
:100640009946A246AB46F0BC08BC04B01847C04669
:100650005804002041040000FD030000D103000005
:1006600010270000C10300001E4B072256215A54D8
:1006700001315A543432995C022001439954995CF7
:100680001E3001439954184A136A20210B43136208
:10069000164B174A5A805968164A0A435A608022F4
:1006A0005200154B5A601A00D369002BFCD1124A34
:1006B000D368FF218B43DD390B43D360D369002B13
:1006C000FCD10E4A0C4B1A601A00D369002BFCD1E6
:1006D000094A538B10210B435383D369002BFCD160
:1006E0007047C0460044004100040040000C004038
:1006F00017440000040601000014004216003000F8
:1007000010B5274A5368274C23405360D369002B08
:10071000FCD14000224B58621A00137EDB07FCD547
:10072000002028231E4AD054137EDB07FCD508780E
:1007300028231B4AD054137EDB07FCD54878282396
:10074000174AD054137EDB07FCD588782823144A37
:10075000D054137EDB07FCD508792823104AD054E7
:10076000137EDB07FCD5487928230D4AD054137E2D
:10077000DB07FCD588792823094AD054137EDB0790
:10078000FCD5C9792823064AD154137EDB07FCD552
:10079000034A5168C0239B020B43536010BDC046FF
:1007A00000140042FFFFFBFF10B5304A5368304C85
:1007B00023405360D369002BFCD140002B4B58627F
:1007C0001A00137EDB07FCD500242823274AD454C3
:1007D000137EDB07FCD5254B5C68C02292022243C6
:1007E0005A600122104358621A00137E9B07FCD501
:1007F0001E4B5A681E4802405A6028229B5C0B70B0
:100800001A4A137E9B07FCD52823184AD35C4B70E9
:10081000137E9B07FCD52823144AD35C8B70137E70
:100820009B07FCD52823114AD35C0B71137E9B07D1
:10083000FCD528230D4AD35C4B71137E9B07FCD556
:1008400028230A4AD35C8B71137E9B07FCD5074B88
:1008500058688022D20202435A605868C02292022D
:1008600002435A6028229B5CCB7110BD00140042E9
:10087000FFFFFBFF70B50D4E0D4D0024AD1BAD10FD
:1008800005D0A300F35801349847A542F9D100F0F0
:10089000D5F8084E084D0024AD1BAD1005D0A300BF
:1008A000F35801349847A542F9D170BD480A0000B9
:1008B000480A0000480A0000500A0000034B10B527
:1008C000002B02D0024800F005F810BD0000000027
:1008D000E508000010B5010000230022002000F010
:1008E0001FF810BD70B5094B094CE41AA41009D0CB
:1008F000084AA518AD00ED182B68013C9847043D47
:10090000002CF9D100F0A4F870BDC0465C0A0000CC
:10091000600A0000FFFFFF3F7047C0467047C046B7
:10092000F0B54E464546DE465746E0B5364D83B0F7
:100930000600286898460F009146FFF7EDFF334BFD
:100940001C68A4235B00E058002852D043681F2B8A
:1009500013DC5A1C0192002E28D1019A02339B000D
:1009600042601F502868FFF7D9FF002003B03CBC4D
:1009700090469946A246AB46F0BD254B002B3DD094
:10098000C820400000E000BF002837D0A422002388
:100990005200A15843600160A0504032835004329D
:1009A0008350013301930023002ED6D09A00924643
:1009B00082444A46882154466250C42252009146DD
:1009C00081444A468739994012688B460A439446C7
:1009D0004A4661461160842241465200A150022ECF
:1009E000BBD102005C468D32FF3211680C431460AB
:1009F000B3E720004D30FF30E050A7E72868FFF74D
:100A00008DFF01204042B1E730040020380A000089
:100A100000000000256425642F256425642F3230F2
:100A200025642564202D2000256425643A2564254D
:100A3000643A256425640A0008000020F8B5C04621
:100A4000F8BC08BC9E467047BD080000DD000000F1
:100A5000F8B5C046F8BC08BC9E467047B50000001B
:100A600040420F007004002000000000F40200204B
:100A70005C030020C4030020000000000000000010
:100A80000000000000000000000000000000000066
:100A90000000000000000000000000000000000056
:100AA0000000000000000000000000000000000046
:100AB0000000000000000000000000000000000036
:100AC0000000000000000000000000000000000026
:100AD0000000000000000000000000000000000016
:100AE0000000000000000000000000000000000006
:100AF00000000000000000000000000000000000F6
:100B000000000000000000000000000000000000E5
:100B100001000000000000000E33CDAB34126DE682
:100B2000ECDE05000B0000000000000000000000EB
:100B300000000000000000000000000000000000B5
:100B400000000000000000000000000000000000A5
:100B50000000000000000000000000000000000095
:100B60000000000000000000000000000000000085
:040E90007C040020BE
:00000001FF
