:1000000080240020190100001501000015010000E6
:1000100000000000000000000000000000000000E0
:1000200000000000000000000000000015010000BA
:100030000000000000000000150100001501000094
:100040001501000015010000150100001501000058
:100050001501000015010000150100001501000048
:100060001501000015010000150100001501000038
:100070001501000015010000150100001501000028
:100080001501000015010000150100001501000018
:100090001501000000000000000000001501000034
:1000A00015010000150100001501000015010000F8
:1000B0000000000010B5064C2378002B07D1054B3B
:1000C000002B02D0044800E000BF0123237010BDC4
:1000D000340400200000000058050000084B10B553
:1000E000002B03D00749084800E000BF0748036819
:1000F000002B00D110BD064B002BFBD09847F9E731
:1001000000000000380400205805000058050000D9
:1001100000000000FEE70000F8B52A4A2A4B9A4288
:1001200011D01A00294B9A420DD2294A03339B1A47
:100130009B0801339B000022234822498C5884509D
:1001400004329A42FAD1234A234B9A420AD2D34329
:1001500021495B1803218B4304339B18002102C201
:100160009342FCD11D4AFF211D4B8B439360FD3907
:1001700090235B001B4AD1501B4AD3780325AB4325
:1001800002242343D370D3780C27BB430826334380
:10019000D370164B987B30229043202210439873E3
:1001A000997BB943314399739A7BAA4322439A734B
:1001B0000F4A536880210B4353600E4B98470E4BF8
:1001C0009847FEE758050000000000203404002096
:1001D00004000020340400207C04002000ED00E036
:1001E0000000000000700041005000410048004144
:1001F00000400041910300000D020000014A024B43
:100200001A60704740420F000000002070B5524B4A
:100210009847524A136A52490B401362514B0722C6
:1002200056215A5401315A543432995C0220014308
:100230009954995C1E30014399544B4A136A20210A
:100240000B431362494B4A4A5A805968494A0A4348
:100250005A6080225200484B5A601A00D369002B22
:10026000FCD1454AD368FF218B43DD390B43D36072
:10027000D369002BFCD1414A3F4B1A601A00D36965
:10028000002BFCD13C4A538B10210B435383D36981
:10029000002BFCD1D022384B5A621A00137EDB07A8
:1002A000FCD5374B00221A601B68032B10D8344D45
:1002B000344C314A282029002B68E35C1354137E08
:1002C000DB07FCD50B6801330B600B68032BF3D9FC
:1002D000294B5968C02292020A435A60D0225A62BE
:1002E0001A00137EDB07FCD503212823224AD154B0
:1002F000137EDB07FCD5204B5A682349114080222E
:1003000052020A435A60D1225A621A00137E9B0796
:10031000FCD51B4B00221A601B68022B10D8184E0C
:10032000154A2825194C31003368505DE054137E7E
:100330009B07FCD50B6801330B600B68022BF3D9CC
:100340000D4B5968C02292020A435A601A68022172
:100350008A431A60002070BDFD01000000080040C3
:10036000FFFCFFFF0044004100040040000C00407F
:10037000174400000406010000140042160030007B
:100380005004002004000020FFFFFCFF5404002064
:1003900070B50D4E0D4D0024AD1BAD1005D0A30062
:1003A000F35801349847A542F9D100F0C3F8084E3C
:1003B000084D0024AD1BAD1005D0A300F358013447
:1003C0009847A542F9D170BD4005000040050000E6
:1003D0004005000048050000034B10B5002B02D07B
:1003E000024800F005F810BD000000000104000004
:1003F00010B5010000230022002000F01FF810BDFE
:1004000070B5094B094CE41AA41009D0084AA51884
:10041000AD00ED182B68013C9847043D002CF9D144
:1004200000F092F870BDC046540500005805000069
:10043000FFFFFF3F7047C0467047C046F0B54E46CD
:100440004546DE465746E0B5364D83B0060028687F
:1004500098460F009146FFF7EDFF334B1C68A4232D
:100460005B00E058002852D043681F2B13DC5A1C55
:100470000192002E28D1019A02339B0042601F5046
:100480002868FFF7D9FF002003B03CBC904699468E
:10049000A246AB46F0BD254B002B3DD0C820400006
:1004A00000E000BF002837D0A42200235200A1584A
:1004B00043600160A05040328350043283500133C6
:1004C00001930023002ED6D09A00924682444A46D9
:1004D000882154466250C4225200914681444A46C3
:1004E0008739994012688B460A4394464A466146CA
:1004F0001160842241465200A150022EBBD102005D
:100500005C468D32FF3211680C431460B3E7200063
:100510004D30FF30E050A7E72868FFF78DFF01203E
:100520004042B1E730040020300500000000000028
:1005300008000020F8B5C046F8BC08BC9E467047CD
:10054000D9030000DD000000F8B5C046F8BC08BCC7
:080550009E467047B500000053
:1005580040420F000303220400000000F4020020C0
:100568005C030020C403002000000000000000001D
:100578000000000000000000000000000000000073
:100588000000000000000000000000000000000063
:100598000000000000000000000000000000000053
:1005A8000000000000000000000000000000000043
:1005B8000000000000000000000000000000000033
:1005C8000000000000000000000000000000000023
:1005D8000000000000000000000000000000000013
:1005E8000000000000000000000000000000000003
:1005F80000000000000000000000000000000000F3
:1006080001000000000000000E33CDAB34126DE68F
:10061800ECDE05000B0000000000000000000000F8
:1006280000000000000000000000000000000000C2
:1006380000000000000000000000000000000000B2
:1006480000000000000000000000000000000000A2
:100658000000000000000000000000000000000092
:0409880058040020EF
:00000001FF
